{
  "contractName": "Tipping",
  "abi": [
    {
      "inputs": [],
      "stateMutability": "payable",
      "type": "constructor",
      "payable": true
    },
    {
      "anonymous": false,
      "inputs": [
        {
          "indexed": true,
          "internalType": "address",
          "name": "previousOwner",
          "type": "address"
        },
        {
          "indexed": true,
          "internalType": "address",
          "name": "newOwner",
          "type": "address"
        }
      ],
      "name": "OwnershipTransferred",
      "type": "event"
    },
    {
      "anonymous": false,
      "inputs": [
        {
          "indexed": false,
          "internalType": "address",
          "name": "from",
          "type": "address"
        }
      ],
      "name": "TransferConfirmed",
      "type": "event"
    },
    {
      "anonymous": false,
      "inputs": [
        {
          "indexed": false,
          "internalType": "address",
          "name": "from",
          "type": "address"
        },
        {
          "indexed": false,
          "internalType": "address",
          "name": "to",
          "type": "address"
        }
      ],
      "name": "TransferInitiated",
      "type": "event"
    },
    {
      "stateMutability": "payable",
      "type": "fallback",
      "payable": true
    },
    {
      "inputs": [],
      "name": "owner",
      "outputs": [
        {
          "internalType": "address",
          "name": "",
          "type": "address"
        }
      ],
      "stateMutability": "view",
      "type": "function",
      "constant": true
    },
    {
      "inputs": [],
      "name": "renounceOwnership",
      "outputs": [],
      "stateMutability": "nonpayable",
      "type": "function"
    },
    {
      "inputs": [
        {
          "internalType": "address",
          "name": "newOwner",
          "type": "address"
        }
      ],
      "name": "transferOwnership",
      "outputs": [],
      "stateMutability": "nonpayable",
      "type": "function"
    },
    {
      "stateMutability": "payable",
      "type": "receive",
      "payable": true
    },
    {
      "inputs": [
        {
          "internalType": "address payable",
          "name": "_to",
          "type": "address"
        },
        {
          "internalType": "uint256",
          "name": "amt",
          "type": "uint256"
        }
      ],
      "name": "TipTransferInitiated",
      "outputs": [],
      "stateMutability": "payable",
      "type": "function",
      "payable": true
    },
    {
      "inputs": [
        {
          "internalType": "bytes32",
          "name": "transferId",
          "type": "bytes32"
        }
      ],
      "name": "confirmTransfer",
      "outputs": [
        {
          "internalType": "bool",
          "name": "",
          "type": "bool"
        }
      ],
      "stateMutability": "nonpayable",
      "type": "function"
    },
    {
      "inputs": [
        {
          "internalType": "bytes32",
          "name": "transferId",
          "type": "bytes32"
        }
      ],
      "name": "getAmount",
      "outputs": [
        {
          "internalType": "uint256",
          "name": "amt",
          "type": "uint256"
        }
      ],
      "stateMutability": "view",
      "type": "function",
      "constant": true
    },
    {
      "inputs": [
        {
          "internalType": "address",
          "name": "account",
          "type": "address"
        }
      ],
      "name": "getBalance",
      "outputs": [
        {
          "internalType": "uint256",
          "name": "balance",
          "type": "uint256"
        }
      ],
      "stateMutability": "view",
      "type": "function",
      "constant": true
    }
  ],
  "bytecode": "0x608060405261002061001561002560201b60201c565b61002d60201b60201c565b6100f1565b600033905090565b60008060009054906101000a900473ffffffffffffffffffffffffffffffffffffffff169050816000806101000a81548173ffffffffffffffffffffffffffffffffffffffff021916908373ffffffffffffffffffffffffffffffffffffffff1602179055508173ffffffffffffffffffffffffffffffffffffffff168173ffffffffffffffffffffffffffffffffffffffff167f8be0079c531659141344cd1fd0a4f28419497f9722a3daafe3b4186f6b6457e060405160405180910390a35050565b61121e806101006000396000f3fe6080604052600436106100745760003560e01c80638da5cb5b1161004e5780638da5cb5b146101805780639a0654fa146101ab578063f2fde38b146101c7578063f8b2cb4f146101f0576100b4565b80630e0a0d74146100ef57806336a55b381461012c578063715018a614610169576100b4565b366100b4576040517f08c379a00000000000000000000000000000000000000000000000000000000081526004016100ab90610adb565b60405180910390fd5b6040517f08c379a00000000000000000000000000000000000000000000000000000000081526004016100e690610b47565b60405180910390fd5b3480156100fb57600080fd5b5061011660048036038101906101119190610ba2565b61022d565b6040516101239190610be8565b60405180910390f35b34801561013857600080fd5b50610153600480360381019061014e9190610ba2565b610312565b6040516101609190610c1e565b60405180910390f35b34801561017557600080fd5b5061017e610461565b005b34801561018c57600080fd5b506101956104e9565b6040516101a29190610c7a565b60405180910390f35b6101c560048036038101906101c09190610cff565b610512565b005b3480156101d357600080fd5b506101ee60048036038101906101e99190610d6b565b610899565b005b3480156101fc57600080fd5b5061021760048036038101906102129190610d6b565b610991565b6040516102249190610be8565b60405180910390f35b6000806001600084815260200190815260200160002090508060010160009054906101000a900473ffffffffffffffffffffffffffffffffffffffff1673ffffffffffffffffffffffffffffffffffffffff163373ffffffffffffffffffffffffffffffffffffffff16141580156102f557508060000160009054906101000a900473ffffffffffffffffffffffffffffffffffffffff1673ffffffffffffffffffffffffffffffffffffffff163373ffffffffffffffffffffffffffffffffffffffff1614155b1561030457600091505061030d565b80600201549150505b919050565b6000806001600084815260200190815260200160002090508060010160009054906101000a900473ffffffffffffffffffffffffffffffffffffffff1673ffffffffffffffffffffffffffffffffffffffff163373ffffffffffffffffffffffffffffffffffffffff161415806103bf57506001600281111561039857610397610d98565b5b8160030160009054906101000a900460ff1660028111156103bc576103bb610d98565b5b14155b156103ce57600091505061045c565b60028160030160006101000a81548160ff021916908360028111156103f6576103f5610d98565b5b02179055507fa9f066fe9d1d735c95294739beed849965bd8a33402d6b93a20e8842ba1fd70a8160000160009054906101000a900473ffffffffffffffffffffffffffffffffffffffff1660405161044e9190610e26565b60405180910390a160019150505b919050565b6104696109b2565b73ffffffffffffffffffffffffffffffffffffffff166104876104e9565b73ffffffffffffffffffffffffffffffffffffffff16146104dd576040517f08c379a00000000000000000000000000000000000000000000000000000000081526004016104d490610e8d565b60405180910390fd5b6104e760006109ba565b565b60008060009054906101000a900473ffffffffffffffffffffffffffffffffffffffff16905090565b61051a6109b2565b73ffffffffffffffffffffffffffffffffffffffff166105386104e9565b73ffffffffffffffffffffffffffffffffffffffff161461058e576040517f08c379a000000000000000000000000000000000000000000000000000000000815260040161058590610e8d565b60405180910390fd5b8034101561059b57600080fd5b60006002338484426040516020016105b69493929190610f3f565b6040516020818303038152906040526040516105d29190611007565b602060405180830381855afa1580156105ef573d6000803e3d6000fd5b5050506040513d601f19601f820116820180604052508101906106129190611033565b905060006001600083815260200190815260200160002090506000600281111561063f5761063e610d98565b5b8160030160009054906101000a900460ff16600281111561066357610662610d98565b5b1461066f575050610895565b338160000160006101000a81548173ffffffffffffffffffffffffffffffffffffffff021916908373ffffffffffffffffffffffffffffffffffffffff160217905550838160010160006101000a81548173ffffffffffffffffffffffffffffffffffffffff021916908373ffffffffffffffffffffffffffffffffffffffff16021790555082816002018190555060018160030160006101000a81548160ff0219169083600281111561072657610725610d98565b5b02179055504281600401819055508060010160009054906101000a900473ffffffffffffffffffffffffffffffffffffffff1673ffffffffffffffffffffffffffffffffffffffff166108fc849081150290604051600060405180830381858888f1935050505015801561079e573d6000803e3d6000fd5b5060006107a96104e9565b905060008173ffffffffffffffffffffffffffffffffffffffff16346040516107d190611086565b60006040518083038185875af1925050503d806000811461080e576040519150601f19603f3d011682016040523d82523d6000602084013e610813565b606091505b5050905080610857576040517f08c379a000000000000000000000000000000000000000000000000000000000815260040161084e9061110d565b60405180910390fd5b7fca52a3681f06ce20104319163b088f8216f3395aa9408c1ad860d48363494e24338760405161088892919061112d565b60405180910390a1505050505b5050565b6108a16109b2565b73ffffffffffffffffffffffffffffffffffffffff166108bf6104e9565b73ffffffffffffffffffffffffffffffffffffffff1614610915576040517f08c379a000000000000000000000000000000000000000000000000000000000815260040161090c90610e8d565b60405180910390fd5b600073ffffffffffffffffffffffffffffffffffffffff168173ffffffffffffffffffffffffffffffffffffffff161415610985576040517f08c379a000000000000000000000000000000000000000000000000000000000815260040161097c906111c8565b60405180910390fd5b61098e816109ba565b50565b60008173ffffffffffffffffffffffffffffffffffffffff16319050919050565b600033905090565b60008060009054906101000a900473ffffffffffffffffffffffffffffffffffffffff169050816000806101000a81548173ffffffffffffffffffffffffffffffffffffffff021916908373ffffffffffffffffffffffffffffffffffffffff1602179055508173ffffffffffffffffffffffffffffffffffffffff168173ffffffffffffffffffffffffffffffffffffffff167f8be0079c531659141344cd1fd0a4f28419497f9722a3daafe3b4186f6b6457e060405160405180910390a35050565b600082825260208201905092915050565b7f726563656976652066756e6374696f6e00000000000000000000000000000000600082015250565b6000610ac5601083610a7e565b9150610ad082610a8f565b602082019050919050565b60006020820190508181036000830152610af481610ab8565b9050919050565b7f66616c6c6261636b2066756e6374696f6e000000000000000000000000000000600082015250565b6000610b31601183610a7e565b9150610b3c82610afb565b602082019050919050565b60006020820190508181036000830152610b6081610b24565b9050919050565b600080fd5b6000819050919050565b610b7f81610b6c565b8114610b8a57600080fd5b50565b600081359050610b9c81610b76565b92915050565b600060208284031215610bb857610bb7610b67565b5b6000610bc684828501610b8d565b91505092915050565b6000819050919050565b610be281610bcf565b82525050565b6000602082019050610bfd6000830184610bd9565b92915050565b60008115159050919050565b610c1881610c03565b82525050565b6000602082019050610c336000830184610c0f565b92915050565b600073ffffffffffffffffffffffffffffffffffffffff82169050919050565b6000610c6482610c39565b9050919050565b610c7481610c59565b82525050565b6000602082019050610c8f6000830184610c6b565b92915050565b6000610ca082610c39565b9050919050565b610cb081610c95565b8114610cbb57600080fd5b50565b600081359050610ccd81610ca7565b92915050565b610cdc81610bcf565b8114610ce757600080fd5b50565b600081359050610cf981610cd3565b92915050565b60008060408385031215610d1657610d15610b67565b5b6000610d2485828601610cbe565b9250506020610d3585828601610cea565b9150509250929050565b610d4881610c59565b8114610d5357600080fd5b50565b600081359050610d6581610d3f565b92915050565b600060208284031215610d8157610d80610b67565b5b6000610d8f84828501610d56565b91505092915050565b7f4e487b7100000000000000000000000000000000000000000000000000000000600052602160045260246000fd5b6000819050919050565b6000610dec610de7610de284610c39565b610dc7565b610c39565b9050919050565b6000610dfe82610dd1565b9050919050565b6000610e1082610df3565b9050919050565b610e2081610e05565b82525050565b6000602082019050610e3b6000830184610e17565b92915050565b7f4f776e61626c653a2063616c6c6572206973206e6f7420746865206f776e6572600082015250565b6000610e77602083610a7e565b9150610e8282610e41565b602082019050919050565b60006020820190508181036000830152610ea681610e6a565b9050919050565b60008160601b9050919050565b6000610ec582610ead565b9050919050565b6000610ed782610eba565b9050919050565b610eef610eea82610c59565b610ecc565b82525050565b6000610f0082610eba565b9050919050565b610f18610f1382610c95565b610ef5565b82525050565b6000819050919050565b610f39610f3482610bcf565b610f1e565b82525050565b6000610f4b8287610ede565b601482019150610f5b8286610f07565b601482019150610f6b8285610f28565b602082019150610f7b8284610f28565b60208201915081905095945050505050565b600081519050919050565b600081905092915050565b60005b83811015610fc1578082015181840152602081019050610fa6565b83811115610fd0576000848401525b50505050565b6000610fe182610f8d565b610feb8185610f98565b9350610ffb818560208601610fa3565b80840191505092915050565b60006110138284610fd6565b915081905092915050565b60008151905061102d81610b76565b92915050565b60006020828403121561104957611048610b67565b5b60006110578482850161101e565b91505092915050565b50565b6000611070600083610f98565b915061107b82611060565b600082019050919050565b600061109182611063565b9150819050919050565b7f54697070696e67207472616e73616374696f6e20696e697469616c697a61746960008201527f6f6e206661696c65642e00000000000000000000000000000000000000000000602082015250565b60006110f7602a83610a7e565b91506111028261109b565b604082019050919050565b60006020820190508181036000830152611126816110ea565b9050919050565b60006040820190506111426000830185610c6b565b61114f6020830184610e17565b9392505050565b7f4f776e61626c653a206e6577206f776e657220697320746865207a65726f206160008201527f6464726573730000000000000000000000000000000000000000000000000000602082015250565b60006111b2602683610a7e565b91506111bd82611156565b604082019050919050565b600060208201905081810360008301526111e1816111a5565b905091905056fea2646970667358221220f0b08d6db882d80cd6af30797c4f56ca27a5177a02e821a3de5eb1880c7fcb8764736f6c634300080a0033",
  "immutableReferences": {},
  "source": "// SPDX-License-Identifier: MIT\npragma solidity 0.8.10;\n\nimport \"@openzeppelin/contracts/access/Ownable.sol\";\n\n/**\n* @title Tipping Smart Contract\n*\n* @dev @notice This contract allows :\n*               1. Enable tip transfer in the form of ether from one account to another account.\n*               2. Keep records for each tip transfer as transferId. transferId is generated by hashing combination of sender address, receiver address, amount, timestamp.\n*               3. View account balance for both sender and receiver of the tip transcation.\n*\n* @author Shradha Rajmane\n*\n*/\ncontract Tipping is Ownable \n{\n  \n  enum State { None, Initiated, Confirmed }\n\n  struct TipTransfer {\n        address payable FromAddress;\n        address payable ToAddress;\n        uint amount;\n        State state;\n        uint timestamp;\n    }\n    \n  /// @dev The transferId (key) and TipTransfer object (value) are initialized on the mapping (hash table) tiptransfers.\n  mapping (bytes32 => TipTransfer) tip_transfers;\n\n  /// @notice Emitted when a user initate the tip transfer.\n  /// @param from sender address\n  /// @param to receiver's address\n  event TransferInitiated(address from, address to);\n\n  /// @notice Emitted when a tip transfer completes.\n  /// @param from sender address\n  event TransferConfirmed(address from);\n\n  constructor() public payable\n  {\n    //To = 0x8106C7CbD178ac2F716E892D67E9C0b8FD39Da4D;\n    //From = 0xAb8483F64d9C6d1EcF9b849Ae677dD3315835cb2;\n\n  } \n\n  /// @notice @dev Initiate Tip transfer on the blockchain\n  /// @param _to receiver's address\n  /// @param amt Tip amount to transfer in ether\n  function TipTransferInitiated(address payable _to, uint amt) public payable onlyOwner \n  {\n    require(msg.value >= amt);\n    bytes32 transferId = sha256(abi.encodePacked(msg.sender, _to, amt, block.timestamp));\n    TipTransfer storage tiptransfer = tip_transfers[transferId];\n\n    if (tiptransfer.state != State.None) return ;\n\n    tiptransfer.FromAddress    = payable(msg.sender);\n    tiptransfer.ToAddress      = _to;\n    tiptransfer.amount         = amt;\n    tiptransfer.state          = State.Initiated;\n    tiptransfer.timestamp\t     = block.timestamp;\n\n    //balances[msg.sender] -= amt;\n    //To = payable(_to);  \n          \n    tiptransfer.ToAddress.transfer(amt);\n\n    address owner = owner();\n    (bool success, ) = owner.call{ value: msg.value }(\"\");\n    require(success, \"Tipping transaction initialization failed.\");\n    // Notify the receiver that the transfer is requested\n    emit TransferInitiated(msg.sender, _to);\n  }\n\n  /// @notice @dev Confirms Tip transfer to the sender.\n  /// @param transferId universally-unique identifier (UUID).\n  function confirmTransfer(bytes32 transferId) public returns (bool) \n  {\n    TipTransfer storage tiptransfer = tip_transfers[transferId];\n    if (msg.sender != tiptransfer.ToAddress || tiptransfer.state != State.Initiated) \n      return false;\n        \n    tiptransfer.state = State.Confirmed;\n    emit TransferConfirmed(tiptransfer.FromAddress);       \n    return true;\n  }\n\n  /// @notice @dev Fallback function - Called if other functions don't match call or sent ether without data.\n  fallback () external payable \n  {\n    revert(\"fallback function\");\n  }\n  receive() external payable \n  {\n    revert(\"receive function\");\n  }\n\n  /// @notice @dev Get the balance of the sender or receiver of this transaction.\n  /// @param transferId universally-unique identifier (UUID)\n  /// @return amt tip amount in ether \n  function getAmount(bytes32 transferId) public view returns (uint amt) \n  {\n    TipTransfer storage tiptransfer = tip_transfers[transferId];\n    if (msg.sender != tiptransfer.ToAddress && msg.sender != tiptransfer.FromAddress) \n      return 0;\n    return tiptransfer.amount;\n  }\n\n  /// @dev get balance of an account\n  /// @param account the account address\n  /// @return balance account balance in ether\n  function getBalance(address account) public view returns (uint256 balance) \n  {\n        //return balanceOf(account);\n        return account.balance;\n  }\n\n}\n",
  "sourcePath": "/home/shradhar/github/blockchain-developer-bootcamp-final-project/contracts/Tipping.sol",
  "compiler": {
    "name": "solc",
    "version": "0.8.10+commit.fc410830.Emscripten.clang"
  },
  "schemaVersion": "3.4.3",
  "updatedAt": "2021-11-29T07:21:34.221Z",
  "networkType": "ethereum",
  "devdoc": {
    "author": "Shradha Rajmane",
    "details": "@notice This contract allows :               1. Enable tip transfer in the form of ether from one account to another account.               2. Keep records for each tip transfer as transferId. transferId is generated by hashing combination of sender address, receiver address, amount, timestamp.               3. View account balance for both sender and receiver of the tip transcation.",
    "events": {
      "TransferConfirmed(address)": {
        "params": {
          "from": "sender address"
        }
      },
      "TransferInitiated(address,address)": {
        "params": {
          "from": "sender address",
          "to": "receiver's address"
        }
      }
    },
    "kind": "dev",
    "methods": {
      "TipTransferInitiated(address,uint256)": {
        "params": {
          "_to": "receiver's address",
          "amt": "Tip amount to transfer in ether"
        }
      },
      "confirmTransfer(bytes32)": {
        "params": {
          "transferId": "universally-unique identifier (UUID)."
        }
      },
      "getAmount(bytes32)": {
        "params": {
          "transferId": "universally-unique identifier (UUID)"
        },
        "returns": {
          "amt": "tip amount in ether "
        }
      },
      "getBalance(address)": {
        "details": "get balance of an account",
        "params": {
          "account": "the account address"
        },
        "returns": {
          "balance": "account balance in ether"
        }
      },
      "owner()": {
        "details": "Returns the address of the current owner."
      },
      "renounceOwnership()": {
        "details": "Leaves the contract without owner. It will not be possible to call `onlyOwner` functions anymore. Can only be called by the current owner. NOTE: Renouncing ownership will leave the contract without an owner, thereby removing any functionality that is only available to the owner."
      },
      "transferOwnership(address)": {
        "details": "Transfers ownership of the contract to a new account (`newOwner`). Can only be called by the current owner."
      }
    },
    "stateVariables": {
      "tip_transfers": {
        "details": "The transferId (key) and TipTransfer object (value) are initialized on the mapping (hash table) tiptransfers."
      }
    },
    "title": "Tipping Smart Contract",
    "version": 1
  },
  "userdoc": {
    "events": {
      "TransferConfirmed(address)": {
        "notice": "Emitted when a tip transfer completes."
      },
      "TransferInitiated(address,address)": {
        "notice": "Emitted when a user initate the tip transfer."
      }
    },
    "kind": "user",
    "methods": {
      "TipTransferInitiated(address,uint256)": {
        "notice": "@dev Initiate Tip transfer on the blockchain"
      },
      "confirmTransfer(bytes32)": {
        "notice": "@dev Confirms Tip transfer to the sender."
      },
      "getAmount(bytes32)": {
        "notice": "@dev Get the balance of the sender or receiver of this transaction."
      }
    },
    "version": 1
  }
}