{
  "contractName": "Tipping",
  "abi": [
    {
      "inputs": [],
      "stateMutability": "nonpayable",
      "type": "constructor"
    },
    {
      "anonymous": false,
      "inputs": [
        {
          "indexed": true,
          "internalType": "address",
          "name": "previousOwner",
          "type": "address"
        },
        {
          "indexed": true,
          "internalType": "address",
          "name": "newOwner",
          "type": "address"
        }
      ],
      "name": "OwnershipTransferred",
      "type": "event"
    },
    {
      "anonymous": false,
      "inputs": [
        {
          "indexed": false,
          "internalType": "address",
          "name": "from",
          "type": "address"
        }
      ],
      "name": "TransferConfirmed",
      "type": "event"
    },
    {
      "anonymous": false,
      "inputs": [
        {
          "indexed": false,
          "internalType": "address",
          "name": "from",
          "type": "address"
        },
        {
          "indexed": false,
          "internalType": "address",
          "name": "to",
          "type": "address"
        }
      ],
      "name": "TransferInitiated",
      "type": "event"
    },
    {
      "stateMutability": "payable",
      "type": "fallback",
      "payable": true
    },
    {
      "inputs": [],
      "name": "owner",
      "outputs": [
        {
          "internalType": "address",
          "name": "",
          "type": "address"
        }
      ],
      "stateMutability": "view",
      "type": "function",
      "constant": true
    },
    {
      "inputs": [],
      "name": "renounceOwnership",
      "outputs": [],
      "stateMutability": "nonpayable",
      "type": "function"
    },
    {
      "inputs": [
        {
          "internalType": "address",
          "name": "newOwner",
          "type": "address"
        }
      ],
      "name": "transferOwnership",
      "outputs": [],
      "stateMutability": "nonpayable",
      "type": "function"
    },
    {
      "stateMutability": "payable",
      "type": "receive",
      "payable": true
    },
    {
      "inputs": [
        {
          "internalType": "address payable",
          "name": "_to",
          "type": "address"
        },
        {
          "internalType": "uint256",
          "name": "amt",
          "type": "uint256"
        }
      ],
      "name": "TipTransferInitiated",
      "outputs": [
        {
          "internalType": "uint256",
          "name": "",
          "type": "uint256"
        }
      ],
      "stateMutability": "payable",
      "type": "function",
      "payable": true
    },
    {
      "inputs": [],
      "name": "confirmTransfer",
      "outputs": [
        {
          "internalType": "bool",
          "name": "",
          "type": "bool"
        }
      ],
      "stateMutability": "nonpayable",
      "type": "function"
    },
    {
      "inputs": [
        {
          "internalType": "uint256",
          "name": "_tiptransferId",
          "type": "uint256"
        }
      ],
      "name": "getTipAmount",
      "outputs": [
        {
          "internalType": "uint256",
          "name": "amt",
          "type": "uint256"
        }
      ],
      "stateMutability": "view",
      "type": "function",
      "constant": true
    },
    {
      "inputs": [
        {
          "internalType": "address",
          "name": "account",
          "type": "address"
        }
      ],
      "name": "getBalance",
      "outputs": [
        {
          "internalType": "uint256",
          "name": "balance",
          "type": "uint256"
        }
      ],
      "stateMutability": "view",
      "type": "function",
      "constant": true
    },
    {
      "inputs": [
        {
          "internalType": "uint256",
          "name": "_tiptransferId",
          "type": "uint256"
        }
      ],
      "name": "getSenderAddress",
      "outputs": [
        {
          "internalType": "address",
          "name": "",
          "type": "address"
        }
      ],
      "stateMutability": "view",
      "type": "function",
      "constant": true
    },
    {
      "inputs": [
        {
          "internalType": "uint256",
          "name": "_tiptransferId",
          "type": "uint256"
        }
      ],
      "name": "getReceiverAddress",
      "outputs": [
        {
          "internalType": "address",
          "name": "",
          "type": "address"
        }
      ],
      "stateMutability": "view",
      "type": "function",
      "constant": true
    },
    {
      "inputs": [
        {
          "internalType": "uint256",
          "name": "_tiptransferId",
          "type": "uint256"
        }
      ],
      "name": "getState",
      "outputs": [
        {
          "internalType": "enum Tipping.State",
          "name": "",
          "type": "uint8"
        }
      ],
      "stateMutability": "view",
      "type": "function",
      "constant": true
    }
  ],
  "bytecode": "0x608060405234801561001057600080fd5b5061002d61002261003a60201b60201c565b61004260201b60201c565b6000600181905550610106565b600033905090565b60008060009054906101000a900473ffffffffffffffffffffffffffffffffffffffff169050816000806101000a81548173ffffffffffffffffffffffffffffffffffffffff021916908373ffffffffffffffffffffffffffffffffffffffff1602179055508173ffffffffffffffffffffffffffffffffffffffff168173ffffffffffffffffffffffffffffffffffffffff167f8be0079c531659141344cd1fd0a4f28419497f9722a3daafe3b4186f6b6457e060405160405180910390a35050565b6111ea806101156000396000f3fe6080604052600436106100955760003560e01c80639a0654fa116100595780639a0654fa14610209578063baa4930114610239578063ebc2527e14610264578063f2fde38b146102a1578063f8b2cb4f146102ca576100d5565b8063041cc18e146101105780633feabc861461014d57806344c9af281461018a578063715018a6146101c75780638da5cb5b146101de576100d5565b366100d5576040517f08c379a00000000000000000000000000000000000000000000000000000000081526004016100cc90610c82565b60405180910390fd5b6040517f08c379a000000000000000000000000000000000000000000000000000000000815260040161010790610cee565b60405180910390fd5b34801561011c57600080fd5b5061013760048036038101906101329190610d49565b610307565b6040516101449190610db7565b60405180910390f35b34801561015957600080fd5b50610174600480360381019061016f9190610d49565b610347565b6040516101819190610de1565b60405180910390f35b34801561019657600080fd5b506101b160048036038101906101ac9190610d49565b61044a565b6040516101be9190610e73565b60405180910390f35b3480156101d357600080fd5b506101dc610477565b005b3480156101ea57600080fd5b506101f36104ff565b6040516102009190610db7565b60405180910390f35b610223600480360381019061021e9190610ecc565b610528565b6040516102309190610de1565b60405180910390f35b34801561024557600080fd5b5061024e610795565b60405161025b9190610f27565b60405180910390f35b34801561027057600080fd5b5061028b60048036038101906102869190610d49565b610919565b6040516102989190610db7565b60405180910390f35b3480156102ad57600080fd5b506102c860048036038101906102c39190610f6e565b610959565b005b3480156102d657600080fd5b506102f160048036038101906102ec9190610f6e565b610a51565b6040516102fe9190610de1565b60405180910390f35b60006002600083815260200190815260200160002060000160009054906101000a900473ffffffffffffffffffffffffffffffffffffffff169050919050565b60006002600083815260200190815260200160002060010160009054906101000a900473ffffffffffffffffffffffffffffffffffffffff1673ffffffffffffffffffffffffffffffffffffffff163373ffffffffffffffffffffffffffffffffffffffff161415801561041d57506002600083815260200190815260200160002060000160009054906101000a900473ffffffffffffffffffffffffffffffffffffffff1673ffffffffffffffffffffffffffffffffffffffff163373ffffffffffffffffffffffffffffffffffffffff1614155b1561042b5760009050610445565b600260008381526020019081526020016000206002015490505b919050565b60006002600083815260200190815260200160002060030160009054906101000a900460ff169050919050565b61047f610b59565b73ffffffffffffffffffffffffffffffffffffffff1661049d6104ff565b73ffffffffffffffffffffffffffffffffffffffff16146104f3576040517f08c379a00000000000000000000000000000000000000000000000000000000081526004016104ea90610fe7565b60405180910390fd5b6104fd6000610b61565b565b60008060009054906101000a900473ffffffffffffffffffffffffffffffffffffffff16905090565b6000610532610b59565b73ffffffffffffffffffffffffffffffffffffffff166105506104ff565b73ffffffffffffffffffffffffffffffffffffffff16146105a6576040517f08c379a000000000000000000000000000000000000000000000000000000000815260040161059d90610fe7565b60405180910390fd5b6040518060a001604052803373ffffffffffffffffffffffffffffffffffffffff1681526020018473ffffffffffffffffffffffffffffffffffffffff1681526020018381526020016001600281111561060357610602610dfc565b5b81526020014281525060026000600154815260200190815260200160002060008201518160000160006101000a81548173ffffffffffffffffffffffffffffffffffffffff021916908373ffffffffffffffffffffffffffffffffffffffff16021790555060208201518160010160006101000a81548173ffffffffffffffffffffffffffffffffffffffff021916908373ffffffffffffffffffffffffffffffffffffffff1602179055506040820151816002015560608201518160030160006101000a81548160ff021916908360028111156106e4576106e3610dfc565b5b0217905550608082015181600401559050508273ffffffffffffffffffffffffffffffffffffffff166108fc839081150290604051600060405180830381858888f1935050505015801561073c573d6000803e3d6000fd5b507fca52a3681f06ce20104319163b088f8216f3395aa9408c1ad860d48363494e24338460405161076e929190611066565b60405180910390a160016000815480929190610789906110be565b91905055905092915050565b600060026000600154815260200190815260200160002060000160009054906101000a900473ffffffffffffffffffffffffffffffffffffffff1673ffffffffffffffffffffffffffffffffffffffff163373ffffffffffffffffffffffffffffffffffffffff1614158061085457506001600281111561081957610818610dfc565b5b60026000600154815260200190815260200160002060030160009054906101000a900460ff16600281111561085157610850610dfc565b5b14155b156108625760009050610916565b6002806000600154815260200190815260200160002060030160006101000a81548160ff0219169083600281111561089d5761089c610dfc565b5b02179055507fa9f066fe9d1d735c95294739beed849965bd8a33402d6b93a20e8842ba1fd70a60026000600154815260200190815260200160002060000160009054906101000a900473ffffffffffffffffffffffffffffffffffffffff166040516109099190611107565b60405180910390a1600190505b90565b60006002600083815260200190815260200160002060010160009054906101000a900473ffffffffffffffffffffffffffffffffffffffff169050919050565b610961610b59565b73ffffffffffffffffffffffffffffffffffffffff1661097f6104ff565b73ffffffffffffffffffffffffffffffffffffffff16146109d5576040517f08c379a00000000000000000000000000000000000000000000000000000000081526004016109cc90610fe7565b60405180910390fd5b600073ffffffffffffffffffffffffffffffffffffffff168173ffffffffffffffffffffffffffffffffffffffff161415610a45576040517f08c379a0000000000000000000000000000000000000000000000000000000008152600401610a3c90611194565b60405180910390fd5b610a4e81610b61565b50565b600060026000600154815260200190815260200160002060010160009054906101000a900473ffffffffffffffffffffffffffffffffffffffff1673ffffffffffffffffffffffffffffffffffffffff163373ffffffffffffffffffffffffffffffffffffffff1614158015610b2b575060026000600154815260200190815260200160002060000160009054906101000a900473ffffffffffffffffffffffffffffffffffffffff1673ffffffffffffffffffffffffffffffffffffffff163373ffffffffffffffffffffffffffffffffffffffff1614155b15610b395760009050610b54565b8173ffffffffffffffffffffffffffffffffffffffff163190505b919050565b600033905090565b60008060009054906101000a900473ffffffffffffffffffffffffffffffffffffffff169050816000806101000a81548173ffffffffffffffffffffffffffffffffffffffff021916908373ffffffffffffffffffffffffffffffffffffffff1602179055508173ffffffffffffffffffffffffffffffffffffffff168173ffffffffffffffffffffffffffffffffffffffff167f8be0079c531659141344cd1fd0a4f28419497f9722a3daafe3b4186f6b6457e060405160405180910390a35050565b600082825260208201905092915050565b7f726563656976652066756e6374696f6e00000000000000000000000000000000600082015250565b6000610c6c601083610c25565b9150610c7782610c36565b602082019050919050565b60006020820190508181036000830152610c9b81610c5f565b9050919050565b7f66616c6c6261636b2066756e6374696f6e000000000000000000000000000000600082015250565b6000610cd8601183610c25565b9150610ce382610ca2565b602082019050919050565b60006020820190508181036000830152610d0781610ccb565b9050919050565b600080fd5b6000819050919050565b610d2681610d13565b8114610d3157600080fd5b50565b600081359050610d4381610d1d565b92915050565b600060208284031215610d5f57610d5e610d0e565b5b6000610d6d84828501610d34565b91505092915050565b600073ffffffffffffffffffffffffffffffffffffffff82169050919050565b6000610da182610d76565b9050919050565b610db181610d96565b82525050565b6000602082019050610dcc6000830184610da8565b92915050565b610ddb81610d13565b82525050565b6000602082019050610df66000830184610dd2565b92915050565b7f4e487b7100000000000000000000000000000000000000000000000000000000600052602160045260246000fd5b60038110610e3c57610e3b610dfc565b5b50565b6000819050610e4d82610e2b565b919050565b6000610e5d82610e3f565b9050919050565b610e6d81610e52565b82525050565b6000602082019050610e886000830184610e64565b92915050565b6000610e9982610d76565b9050919050565b610ea981610e8e565b8114610eb457600080fd5b50565b600081359050610ec681610ea0565b92915050565b60008060408385031215610ee357610ee2610d0e565b5b6000610ef185828601610eb7565b9250506020610f0285828601610d34565b9150509250929050565b60008115159050919050565b610f2181610f0c565b82525050565b6000602082019050610f3c6000830184610f18565b92915050565b610f4b81610d96565b8114610f5657600080fd5b50565b600081359050610f6881610f42565b92915050565b600060208284031215610f8457610f83610d0e565b5b6000610f9284828501610f59565b91505092915050565b7f4f776e61626c653a2063616c6c6572206973206e6f7420746865206f776e6572600082015250565b6000610fd1602083610c25565b9150610fdc82610f9b565b602082019050919050565b6000602082019050818103600083015261100081610fc4565b9050919050565b6000819050919050565b600061102c61102761102284610d76565b611007565b610d76565b9050919050565b600061103e82611011565b9050919050565b600061105082611033565b9050919050565b61106081611045565b82525050565b600060408201905061107b6000830185610da8565b6110886020830184611057565b9392505050565b7f4e487b7100000000000000000000000000000000000000000000000000000000600052601160045260246000fd5b60006110c982610d13565b91507fffffffffffffffffffffffffffffffffffffffffffffffffffffffffffffffff8214156110fc576110fb61108f565b5b600182019050919050565b600060208201905061111c6000830184611057565b92915050565b7f4f776e61626c653a206e6577206f776e657220697320746865207a65726f206160008201527f6464726573730000000000000000000000000000000000000000000000000000602082015250565b600061117e602683610c25565b915061118982611122565b604082019050919050565b600060208201905081810360008301526111ad81611171565b905091905056fea2646970667358221220fe088c1f144a7cd8113af7179ac828c4dfe3320d5cb80a9540577f6527dac45464736f6c634300080a0033",
  "immutableReferences": {},
  "source": "// SPDX-License-Identifier: MIT\r\npragma solidity 0.8.10;\r\n\r\nimport \"@openzeppelin/contracts/access/Ownable.sol\";\r\n\r\n/**\r\n* @title Tipping Smart Contract\r\n*\r\n* @dev @notice This contract allows :\r\n*               1. Enable tip transfer in the form of ether from one account to another account.\r\n*               2. Keep records for each tip transfer as tiptransferId. \r\n*               3. Share sender's account balance post tip transcation.\r\n*\r\n* @author Shradha Rajmane\r\n*\r\n*/\r\ncontract Tipping is Ownable \r\n{\r\n  \r\n  enum State { None, Initiated, Confirmed }\r\n\r\n  struct TipTransfer {\r\n        address payable FromAddress;\r\n        address payable ToAddress;\r\n        uint256 amount;\r\n        State state;\r\n        uint timestamp;\r\n    }\r\n    \r\n  /// @notice Keep records for each tip transfer as tiptransferId. \r\n  uint tiptransferId;\r\n\r\n  /// @dev The tiptransferId (key) and TipTransfer object (value) are initialized on the mapping (hash table).\r\n  mapping (uint => TipTransfer) tip_transfer_records;\r\n\r\n  /// @notice Emit when a user initate the tip transfer.\r\n  /// @param from sender address\r\n  /// @param to receiver's address\r\n  event TransferInitiated(address from, address to);\r\n\r\n  /// @notice Emit when a tip transfer completes.\r\n  /// @param from sender address\r\n  event TransferConfirmed(address from);\r\n\r\n  constructor() public \r\n  {  tiptransferId = 0; } \r\n\r\n  /// @notice @dev Initiate Tip transfer on the blockchain.\r\n  /// @param _to receiver's address\r\n  /// @param amt Tip amount to transfer in ether\r\n  function TipTransferInitiated(address payable _to, uint256 amt) public payable \r\n  onlyOwner\r\n  returns(uint)\r\n  {\r\n      \r\n    tip_transfer_records[tiptransferId] = TipTransfer({\r\n    FromAddress    : payable(msg.sender),\r\n    ToAddress      : _to,\r\n    amount         : amt,\r\n    state          : State.Initiated,\r\n    timestamp\t     : block.timestamp });\r\n         \r\n    _to.transfer(amt);\r\n  \r\n    // address owner = owner();\r\n    // (bool success, ) = owner.call{ value: msg.value }(\"\");\r\n    // require(success, \"Tipping transaction initialization failed.\");\r\n    //Notify the receiver that the transfer is requested\r\n    emit TransferInitiated(msg.sender, _to);\r\n    return tiptransferId++;\r\n  }\r\n\r\n  /// @notice @dev Confirms tip has transfered to the sender.\r\n  function confirmTransfer() public returns (bool) \r\n  {\r\n    if (msg.sender != tip_transfer_records[tiptransferId].FromAddress || \r\n         tip_transfer_records[tiptransferId].state != State.Initiated) \r\n      return false;\r\n        \r\n    tip_transfer_records[tiptransferId].state = State.Confirmed;\r\n    emit TransferConfirmed(tip_transfer_records[tiptransferId].FromAddress);       \r\n    return true;\r\n  }\r\n\r\n  /// @notice @dev Fallback function - Called if other functions don't match call or sent ether without data.\r\n  fallback () external payable \r\n  {\r\n    revert(\"fallback function\");\r\n  }\r\n  receive() external payable \r\n  {\r\n    revert(\"receive function\");\r\n  }\r\n\r\n  /// @notice @dev Get the balance of the sender or receiver of this transaction.\r\n  /// @param _tiptransferId unique identifier (UID) of this smart contract.\r\n  /// @return amt tip amount\r\n  function getTipAmount(uint _tiptransferId) public view returns (uint amt) \r\n  {\r\n    if (msg.sender != tip_transfer_records[_tiptransferId].ToAddress && \r\n        msg.sender != tip_transfer_records[_tiptransferId].FromAddress) \r\n      return 0;\r\n    return tip_transfer_records[_tiptransferId].amount;\r\n  }\r\n\r\n  /// @dev Get balance of an account.\r\n  /// @param account the account address\r\n  /// @return balance account balance\r\n  function getBalance(address account) public view returns (uint256 balance) \r\n  {\r\n    if (msg.sender != tip_transfer_records[tiptransferId].ToAddress && \r\n        msg.sender != tip_transfer_records[tiptransferId].FromAddress) \r\n      return 0;\r\n    return account.balance;\r\n  }\r\n\r\n  /// @notice @dev Get the sender address.\r\n  /// @param _tiptransferId unique identifier (UID)\r\n  /// @return sender address\r\n  function getSenderAddress(uint _tiptransferId) public view returns (address) \r\n  {\r\n    return tip_transfer_records[_tiptransferId].FromAddress;\r\n  }\r\n\r\n  /// @notice @dev Get the receiver address.\r\n  /// @param _tiptransferId unique identifier (UID)\r\n  /// @return receiver address\r\n  function getReceiverAddress(uint _tiptransferId) public view returns (address) \r\n  {\r\n    return tip_transfer_records[_tiptransferId].ToAddress;\r\n  }\r\n\r\n  /// @notice @dev Get the transfer state\r\n  /// @param _tiptransferId unique identifier (UID)\r\n  /// @return transfer transcation state \r\n  function getState(uint _tiptransferId) public view returns (State) \r\n  {\r\n    return tip_transfer_records[_tiptransferId].state;\r\n  }\r\n}\r\n",
  "sourcePath": "/home/shradhar/github/blockchain-developer-bootcamp-final-project/contracts/Tipping.sol",
  "compiler": {
    "name": "solc",
    "version": "0.8.10+commit.fc410830.Emscripten.clang"
  },
  "schemaVersion": "3.4.3",
  "updatedAt": "2021-12-01T07:57:28.631Z",
  "networkType": "ethereum",
  "devdoc": {
    "author": "Shradha Rajmane",
    "details": "@notice This contract allows :               1. Enable tip transfer in the form of ether from one account to another account.               2. Keep records for each tip transfer as tiptransferId.                3. Share sender's account balance post tip transcation.",
    "events": {
      "TransferConfirmed(address)": {
        "params": {
          "from": "sender address"
        }
      },
      "TransferInitiated(address,address)": {
        "params": {
          "from": "sender address",
          "to": "receiver's address"
        }
      }
    },
    "kind": "dev",
    "methods": {
      "TipTransferInitiated(address,uint256)": {
        "params": {
          "_to": "receiver's address",
          "amt": "Tip amount to transfer in ether"
        }
      },
      "getBalance(address)": {
        "details": "Get balance of an account.",
        "params": {
          "account": "the account address"
        },
        "returns": {
          "balance": "account balance"
        }
      },
      "getReceiverAddress(uint256)": {
        "params": {
          "_tiptransferId": "unique identifier (UID)"
        },
        "returns": {
          "_0": "receiver address"
        }
      },
      "getSenderAddress(uint256)": {
        "params": {
          "_tiptransferId": "unique identifier (UID)"
        },
        "returns": {
          "_0": "sender address"
        }
      },
      "getState(uint256)": {
        "params": {
          "_tiptransferId": "unique identifier (UID)"
        },
        "returns": {
          "_0": "transfer transcation state "
        }
      },
      "getTipAmount(uint256)": {
        "params": {
          "_tiptransferId": "unique identifier (UID) of this smart contract."
        },
        "returns": {
          "amt": "tip amount"
        }
      },
      "owner()": {
        "details": "Returns the address of the current owner."
      },
      "renounceOwnership()": {
        "details": "Leaves the contract without owner. It will not be possible to call `onlyOwner` functions anymore. Can only be called by the current owner. NOTE: Renouncing ownership will leave the contract without an owner, thereby removing any functionality that is only available to the owner."
      },
      "transferOwnership(address)": {
        "details": "Transfers ownership of the contract to a new account (`newOwner`). Can only be called by the current owner."
      }
    },
    "stateVariables": {
      "tip_transfer_records": {
        "details": "The tiptransferId (key) and TipTransfer object (value) are initialized on the mapping (hash table)."
      }
    },
    "title": "Tipping Smart Contract",
    "version": 1
  },
  "userdoc": {
    "events": {
      "TransferConfirmed(address)": {
        "notice": "Emit when a tip transfer completes."
      },
      "TransferInitiated(address,address)": {
        "notice": "Emit when a user initate the tip transfer."
      }
    },
    "kind": "user",
    "methods": {
      "TipTransferInitiated(address,uint256)": {
        "notice": "@dev Initiate Tip transfer on the blockchain."
      },
      "confirmTransfer()": {
        "notice": "@dev Confirms tip has transfered to the sender."
      },
      "getReceiverAddress(uint256)": {
        "notice": "@dev Get the receiver address."
      },
      "getSenderAddress(uint256)": {
        "notice": "@dev Get the sender address."
      },
      "getState(uint256)": {
        "notice": "@dev Get the transfer state"
      },
      "getTipAmount(uint256)": {
        "notice": "@dev Get the balance of the sender or receiver of this transaction."
      }
    },
    "version": 1
  }
}