{
  "contractName": "Tipping",
  "abi": [
    {
      "inputs": [],
      "stateMutability": "payable",
      "type": "constructor"
    },
    {
      "anonymous": false,
      "inputs": [
        {
          "indexed": true,
          "internalType": "address",
          "name": "previousOwner",
          "type": "address"
        },
        {
          "indexed": true,
          "internalType": "address",
          "name": "newOwner",
          "type": "address"
        }
      ],
      "name": "OwnershipTransferred",
      "type": "event"
    },
    {
      "anonymous": false,
      "inputs": [
        {
          "indexed": false,
          "internalType": "address",
          "name": "from",
          "type": "address"
        }
      ],
      "name": "TransferConfirmed",
      "type": "event"
    },
    {
      "anonymous": false,
      "inputs": [
        {
          "indexed": false,
          "internalType": "address",
          "name": "from",
          "type": "address"
        },
        {
          "indexed": false,
          "internalType": "address",
          "name": "to",
          "type": "address"
        }
      ],
      "name": "TransferInitiated",
      "type": "event"
    },
    {
      "stateMutability": "payable",
      "type": "fallback"
    },
    {
      "inputs": [],
      "name": "owner",
      "outputs": [
        {
          "internalType": "address",
          "name": "",
          "type": "address"
        }
      ],
      "stateMutability": "view",
      "type": "function"
    },
    {
      "inputs": [],
      "name": "renounceOwnership",
      "outputs": [],
      "stateMutability": "nonpayable",
      "type": "function"
    },
    {
      "inputs": [
        {
          "internalType": "address",
          "name": "newOwner",
          "type": "address"
        }
      ],
      "name": "transferOwnership",
      "outputs": [],
      "stateMutability": "nonpayable",
      "type": "function"
    },
    {
      "stateMutability": "payable",
      "type": "receive"
    },
    {
      "inputs": [
        {
          "internalType": "address payable",
          "name": "_to",
          "type": "address"
        },
        {
          "internalType": "uint256",
          "name": "amt",
          "type": "uint256"
        }
      ],
      "name": "TipTransferInitiated",
      "outputs": [
        {
          "internalType": "uint256",
          "name": "",
          "type": "uint256"
        }
      ],
      "stateMutability": "payable",
      "type": "function"
    },
    {
      "inputs": [
        {
          "internalType": "uint256",
          "name": "tiptransferId",
          "type": "uint256"
        }
      ],
      "name": "confirmTransfer",
      "outputs": [
        {
          "internalType": "bool",
          "name": "",
          "type": "bool"
        }
      ],
      "stateMutability": "nonpayable",
      "type": "function"
    },
    {
      "inputs": [
        {
          "internalType": "uint256",
          "name": "_tiptransferId",
          "type": "uint256"
        }
      ],
      "name": "getTipAmount",
      "outputs": [
        {
          "internalType": "uint256",
          "name": "amt",
          "type": "uint256"
        }
      ],
      "stateMutability": "view",
      "type": "function"
    },
    {
      "inputs": [
        {
          "internalType": "address",
          "name": "account",
          "type": "address"
        }
      ],
      "name": "getBalance",
      "outputs": [
        {
          "internalType": "uint256",
          "name": "balance",
          "type": "uint256"
        }
      ],
      "stateMutability": "view",
      "type": "function"
    },
    {
      "inputs": [
        {
          "internalType": "uint256",
          "name": "_tiptransferId",
          "type": "uint256"
        }
      ],
      "name": "getSenderAddress",
      "outputs": [
        {
          "internalType": "address",
          "name": "",
          "type": "address"
        }
      ],
      "stateMutability": "view",
      "type": "function"
    },
    {
      "inputs": [
        {
          "internalType": "uint256",
          "name": "_tiptransferId",
          "type": "uint256"
        }
      ],
      "name": "getReceiverAddress",
      "outputs": [
        {
          "internalType": "address",
          "name": "",
          "type": "address"
        }
      ],
      "stateMutability": "view",
      "type": "function"
    },
    {
      "inputs": [
        {
          "internalType": "uint256",
          "name": "_tiptransferId",
          "type": "uint256"
        }
      ],
      "name": "getState",
      "outputs": [
        {
          "internalType": "enum Tipping.State",
          "name": "",
          "type": "uint8"
        }
      ],
      "stateMutability": "view",
      "type": "function"
    }
  ],
  "bytecode": "0x608060405261002061001561002d60201b60201c565b61003560201b60201c565b60006001819055506100f9565b600033905090565b60008060009054906101000a900473ffffffffffffffffffffffffffffffffffffffff169050816000806101000a81548173ffffffffffffffffffffffffffffffffffffffff021916908373ffffffffffffffffffffffffffffffffffffffff1602179055508173ffffffffffffffffffffffffffffffffffffffff168173ffffffffffffffffffffffffffffffffffffffff167f8be0079c531659141344cd1fd0a4f28419497f9722a3daafe3b4186f6b6457e060405160405180910390a35050565b611349806101086000396000f3fe6080604052600436106100955760003560e01c80638da5cb5b116100595780638da5cb5b1461021b5780639a0654fa14610246578063ebc2527e14610276578063f2fde38b146102b3578063f8b2cb4f146102dc576100d5565b8063041cc18e146101105780632c48e7db1461014d5780633feabc861461018a57806344c9af28146101c7578063715018a614610204576100d5565b366100d5576040517f08c379a00000000000000000000000000000000000000000000000000000000081526004016100cc90610d09565b60405180910390fd5b6040517f08c379a000000000000000000000000000000000000000000000000000000000815260040161010790610d75565b60405180910390fd5b34801561011c57600080fd5b5061013760048036038101906101329190610dd0565b610319565b6040516101449190610e3e565b60405180910390f35b34801561015957600080fd5b50610174600480360381019061016f9190610dd0565b6103c9565b6040516101819190610e74565b60405180910390f35b34801561019657600080fd5b506101b160048036038101906101ac9190610dd0565b610547565b6040516101be9190610e9e565b60405180910390f35b3480156101d357600080fd5b506101ee60048036038101906101e99190610dd0565b61064a565b6040516101fb9190610f30565b60405180910390f35b34801561021057600080fd5b50610219610677565b005b34801561022757600080fd5b506102306106ff565b60405161023d9190610e3e565b60405180910390f35b610260600480360381019061025b9190610f89565b610728565b60405161026d9190610e9e565b60405180910390f35b34801561028257600080fd5b5061029d60048036038101906102989190610dd0565b610a87565b6040516102aa9190610e3e565b60405180910390f35b3480156102bf57600080fd5b506102da60048036038101906102d59190610ff5565b610ac7565b005b3480156102e857600080fd5b5061030360048036038101906102fe9190610ff5565b610bbf565b6040516103109190610e9e565b60405180910390f35b60006002600083815260200190815260200160002060000160009054906101000a900473ffffffffffffffffffffffffffffffffffffffff1673ffffffffffffffffffffffffffffffffffffffff163373ffffffffffffffffffffffffffffffffffffffff1614156103c3576002600083815260200190815260200160002060000160009054906101000a900473ffffffffffffffffffffffffffffffffffffffff1690506103c4565b5b919050565b60006002600083815260200190815260200160002060000160009054906101000a900473ffffffffffffffffffffffffffffffffffffffff1673ffffffffffffffffffffffffffffffffffffffff163373ffffffffffffffffffffffffffffffffffffffff1614158061048457506001600281111561044b5761044a610eb9565b5b6002600084815260200190815260200160002060030160009054906101000a900460ff16600281111561048157610480610eb9565b5b14155b156104925760009050610542565b600280600084815260200190815260200160002060030160006101000a81548160ff021916908360028111156104cb576104ca610eb9565b5b02179055507fa9f066fe9d1d735c95294739beed849965bd8a33402d6b93a20e8842ba1fd70a6002600084815260200190815260200160002060000160009054906101000a900473ffffffffffffffffffffffffffffffffffffffff166040516105359190611081565b60405180910390a1600190505b919050565b60006002600083815260200190815260200160002060010160009054906101000a900473ffffffffffffffffffffffffffffffffffffffff1673ffffffffffffffffffffffffffffffffffffffff163373ffffffffffffffffffffffffffffffffffffffff161415801561061d57506002600083815260200190815260200160002060000160009054906101000a900473ffffffffffffffffffffffffffffffffffffffff1673ffffffffffffffffffffffffffffffffffffffff163373ffffffffffffffffffffffffffffffffffffffff1614155b1561062b5760009050610645565b600260008381526020019081526020016000206002015490505b919050565b60006002600083815260200190815260200160002060030160009054906101000a900460ff169050919050565b61067f610be0565b73ffffffffffffffffffffffffffffffffffffffff1661069d6106ff565b73ffffffffffffffffffffffffffffffffffffffff16146106f3576040517f08c379a00000000000000000000000000000000000000000000000000000000081526004016106ea906110e8565b60405180910390fd5b6106fd6000610be8565b565b60008060009054906101000a900473ffffffffffffffffffffffffffffffffffffffff16905090565b6000610732610be0565b73ffffffffffffffffffffffffffffffffffffffff166107506106ff565b73ffffffffffffffffffffffffffffffffffffffff16146107a6576040517f08c379a000000000000000000000000000000000000000000000000000000000815260040161079d906110e8565b60405180910390fd5b6040518060a001604052803373ffffffffffffffffffffffffffffffffffffffff1681526020018473ffffffffffffffffffffffffffffffffffffffff1681526020018381526020016001600281111561080357610802610eb9565b5b81526020014281525060026000600154815260200190815260200160002060008201518160000160006101000a81548173ffffffffffffffffffffffffffffffffffffffff021916908373ffffffffffffffffffffffffffffffffffffffff16021790555060208201518160010160006101000a81548173ffffffffffffffffffffffffffffffffffffffff021916908373ffffffffffffffffffffffffffffffffffffffff1602179055506040820151816002015560608201518160030160006101000a81548160ff021916908360028111156108e4576108e3610eb9565b5b02179055506080820151816004015590505060026000600154815260200190815260200160002060010160009054906101000a900473ffffffffffffffffffffffffffffffffffffffff1673ffffffffffffffffffffffffffffffffffffffff166108fc839081150290604051600060405180830381858888f19350505050158015610974573d6000803e3d6000fd5b50600061097f6106ff565b905060008173ffffffffffffffffffffffffffffffffffffffff16346040516109a790611139565b60006040518083038185875af1925050503d80600081146109e4576040519150601f19603f3d011682016040523d82523d6000602084013e6109e9565b606091505b5050905080610a2d576040517f08c379a0000000000000000000000000000000000000000000000000000000008152600401610a24906111c0565b60405180910390fd5b7fca52a3681f06ce20104319163b088f8216f3395aa9408c1ad860d48363494e243386604051610a5e9291906111e0565b60405180910390a160016000815480929190610a7990611238565b919050559250505092915050565b60006002600083815260200190815260200160002060010160009054906101000a900473ffffffffffffffffffffffffffffffffffffffff169050919050565b610acf610be0565b73ffffffffffffffffffffffffffffffffffffffff16610aed6106ff565b73ffffffffffffffffffffffffffffffffffffffff1614610b43576040517f08c379a0000000000000000000000000000000000000000000000000000000008152600401610b3a906110e8565b60405180910390fd5b600073ffffffffffffffffffffffffffffffffffffffff168173ffffffffffffffffffffffffffffffffffffffff161415610bb3576040517f08c379a0000000000000000000000000000000000000000000000000000000008152600401610baa906112f3565b60405180910390fd5b610bbc81610be8565b50565b60008173ffffffffffffffffffffffffffffffffffffffff16319050919050565b600033905090565b60008060009054906101000a900473ffffffffffffffffffffffffffffffffffffffff169050816000806101000a81548173ffffffffffffffffffffffffffffffffffffffff021916908373ffffffffffffffffffffffffffffffffffffffff1602179055508173ffffffffffffffffffffffffffffffffffffffff168173ffffffffffffffffffffffffffffffffffffffff167f8be0079c531659141344cd1fd0a4f28419497f9722a3daafe3b4186f6b6457e060405160405180910390a35050565b600082825260208201905092915050565b7f726563656976652066756e6374696f6e00000000000000000000000000000000600082015250565b6000610cf3601083610cac565b9150610cfe82610cbd565b602082019050919050565b60006020820190508181036000830152610d2281610ce6565b9050919050565b7f66616c6c6261636b2066756e6374696f6e000000000000000000000000000000600082015250565b6000610d5f601183610cac565b9150610d6a82610d29565b602082019050919050565b60006020820190508181036000830152610d8e81610d52565b9050919050565b600080fd5b6000819050919050565b610dad81610d9a565b8114610db857600080fd5b50565b600081359050610dca81610da4565b92915050565b600060208284031215610de657610de5610d95565b5b6000610df484828501610dbb565b91505092915050565b600073ffffffffffffffffffffffffffffffffffffffff82169050919050565b6000610e2882610dfd565b9050919050565b610e3881610e1d565b82525050565b6000602082019050610e536000830184610e2f565b92915050565b60008115159050919050565b610e6e81610e59565b82525050565b6000602082019050610e896000830184610e65565b92915050565b610e9881610d9a565b82525050565b6000602082019050610eb36000830184610e8f565b92915050565b7f4e487b7100000000000000000000000000000000000000000000000000000000600052602160045260246000fd5b60038110610ef957610ef8610eb9565b5b50565b6000819050610f0a82610ee8565b919050565b6000610f1a82610efc565b9050919050565b610f2a81610f0f565b82525050565b6000602082019050610f456000830184610f21565b92915050565b6000610f5682610dfd565b9050919050565b610f6681610f4b565b8114610f7157600080fd5b50565b600081359050610f8381610f5d565b92915050565b60008060408385031215610fa057610f9f610d95565b5b6000610fae85828601610f74565b9250506020610fbf85828601610dbb565b9150509250929050565b610fd281610e1d565b8114610fdd57600080fd5b50565b600081359050610fef81610fc9565b92915050565b60006020828403121561100b5761100a610d95565b5b600061101984828501610fe0565b91505092915050565b6000819050919050565b600061104761104261103d84610dfd565b611022565b610dfd565b9050919050565b60006110598261102c565b9050919050565b600061106b8261104e565b9050919050565b61107b81611060565b82525050565b60006020820190506110966000830184611072565b92915050565b7f4f776e61626c653a2063616c6c6572206973206e6f7420746865206f776e6572600082015250565b60006110d2602083610cac565b91506110dd8261109c565b602082019050919050565b60006020820190508181036000830152611101816110c5565b9050919050565b600081905092915050565b50565b6000611123600083611108565b915061112e82611113565b600082019050919050565b600061114482611116565b9150819050919050565b7f54697070696e67207472616e73616374696f6e20696e697469616c697a61746960008201527f6f6e206661696c65642e00000000000000000000000000000000000000000000602082015250565b60006111aa602a83610cac565b91506111b58261114e565b604082019050919050565b600060208201905081810360008301526111d98161119d565b9050919050565b60006040820190506111f56000830185610e2f565b6112026020830184611072565b9392505050565b7f4e487b7100000000000000000000000000000000000000000000000000000000600052601160045260246000fd5b600061124382610d9a565b91507fffffffffffffffffffffffffffffffffffffffffffffffffffffffffffffffff82141561127657611275611209565b5b600182019050919050565b7f4f776e61626c653a206e6577206f776e657220697320746865207a65726f206160008201527f6464726573730000000000000000000000000000000000000000000000000000602082015250565b60006112dd602683610cac565b91506112e882611281565b604082019050919050565b6000602082019050818103600083015261130c816112d0565b905091905056fea2646970667358221220aeecfccafefbaae17b550651b9ba7a43e3be738da4819d50042b8c11023358f064736f6c634300080a0033",
  "immutableReferences": {},
  "source": "// SPDX-License-Identifier: MIT\npragma solidity 0.8.10;\n\nimport \"@openzeppelin/contracts/access/Ownable.sol\";\n\n/**\n* @title Tipping Smart Contract\n*\n* @dev @notice This contract allows :\n*               1. Enable tip transfer in the form of ether from one account to another account.\n*               2. Keep records for each tip transfer as tiptransferId. tiptransferId is generated by hashing combination of sender address, receiver address, amount, timestamp.\n*               3. View account balance for both sender and receiver of the tip transcation.\n*\n* @author Shradha Rajmane\n*\n*/\ncontract Tipping is Ownable \n{\n  \n  enum State { None, Initiated, Confirmed }\n\n  struct TipTransfer {\n        address payable FromAddress;\n        address payable ToAddress;\n        uint256 amount;\n        State state;\n        uint timestamp;\n    }\n    \n  ///\n\n  uint tiptransferId;\n\n  /// @dev The tiptransferId (key) and TipTransfer object (value) are initialized on the mapping (hash table).\n  mapping (uint => TipTransfer) tip_transfer_records;\n\n  /// @notice Emitted when a user initate the tip transfer.\n  /// @param from sender address\n  /// @param to receiver's address\n  event TransferInitiated(address from, address to);\n\n  /// @notice Emitted when a tip transfer completes.\n  /// @param from sender address\n  event TransferConfirmed(address from);\n\n  constructor() public payable\n  {  tiptransferId = 0; } \n\n  /// @notice @dev Initiate Tip transfer on the blockchain\n  /// @param _to receiver's address\n  /// @param amt Tip amount to transfer in ether\n  function TipTransferInitiated(address payable _to, uint256 amt) public payable \n  onlyOwner \n  returns(uint)\n  {\n    //bytes32 _tiptransferId = setTipTransferId(msg.sender,_to,amt);\n    //TipTransfer storage tiptransfer = tip_transfers[_tiptransferId];\n\n    // if (tiptransfer.state != State.None) return 0;\n    tip_transfer_records[tiptransferId] = TipTransfer({\n    FromAddress    : payable(msg.sender),\n    ToAddress      : _to,\n    amount         : amt,\n    state          : State.Initiated,\n    timestamp\t     : block.timestamp });\n         \n    tip_transfer_records[tiptransferId].ToAddress.transfer(amt);\n\n    address owner = owner();\n    (bool success, ) = owner.call{ value: msg.value }(\"\");\n    require(success, \"Tipping transaction initialization failed.\");\n    // Notify the receiver that the transfer is requested\n    emit TransferInitiated(msg.sender, _to);\n    return tiptransferId++;\n  }\n\n  /// @notice @dev Confirms Tip transfer to the sender.\n  /// @param tiptransferId universally-unique identifier (UUID).\n  function confirmTransfer(uint tiptransferId) public returns (bool) \n  {\n    //TipTransfer tiptransfer = tip_transfers[tiptransferId];\n    if (msg.sender != tip_transfer_records[tiptransferId].FromAddress || \n         tip_transfer_records[tiptransferId].state != State.Initiated) \n      return false;\n        \n    tip_transfer_records[tiptransferId].state = State.Confirmed;\n    emit TransferConfirmed(tip_transfer_records[tiptransferId].FromAddress);       \n    return true;\n  }\n\n  /// @notice @dev Fallback function - Called if other functions don't match call or sent ether without data.\n  fallback () external payable \n  {\n    revert(\"fallback function\");\n  }\n  receive() external payable \n  {\n    revert(\"receive function\");\n  }\n\n  \n  /// @notice @dev Get the balance of the sender or receiver of this transaction.\n  /// @param _tiptransferId universally-unique identifier (UUID)\n  /// @return amt tip amount\n  function getTipAmount(uint _tiptransferId) public view returns (uint amt) \n  {\n    //TipTransfer storage tiptransfer = tip_transfers[tiptransferId];\n    if (msg.sender != tip_transfer_records[_tiptransferId].ToAddress && \n        msg.sender != tip_transfer_records[_tiptransferId].FromAddress) \n      return 0;\n    return tip_transfer_records[_tiptransferId].amount;\n  }\n\n  /// @dev get balance of an account\n  /// @param account the account address\n  /// @return balance account balance\n  function getBalance(address account) public view returns (uint256 balance) \n  {\n        return account.balance;\n  }\n\n  /// @notice @dev Get the sender address.\n  /// @param _tiptransferId unique identifier (UID)\n  /// @return sender address\n  function getSenderAddress(uint _tiptransferId) public view returns (address) \n  {\n    if (msg.sender == tip_transfer_records[_tiptransferId].FromAddress) \n      return tip_transfer_records[_tiptransferId].FromAddress;\n  }\n\n  /// @notice @dev Get the receiver address.\n  /// @param _tiptransferId unique identifier (UID)\n  /// @return receiver address\n  function getReceiverAddress(uint _tiptransferId) public view returns (address) \n  {\n    return tip_transfer_records[_tiptransferId].ToAddress;\n  }\n\n  /// @notice @dev Get the transfer state\n  /// @param _tiptransferId unique identifier (UID)\n  /// @return transfer transcation state \n  function getState(uint _tiptransferId) public view returns (State) \n  {\n    return tip_transfer_records[_tiptransferId].state;\n  }\n}\n",
  "sourcePath": "/home/shradhar/github/blockchain-developer-bootcamp-final-project/contracts/Tipping.sol",
  "compiler": {
    "name": "solc",
    "version": "0.8.10+commit.fc410830.Emscripten.clang"
  },
  "schemaVersion": "3.4.3",
  "updatedAt": "2021-11-30T01:45:39.281Z",
  "devdoc": {
    "author": "Shradha Rajmane",
    "details": "@notice This contract allows :               1. Enable tip transfer in the form of ether from one account to another account.               2. Keep records for each tip transfer as tiptransferId. tiptransferId is generated by hashing combination of sender address, receiver address, amount, timestamp.               3. View account balance for both sender and receiver of the tip transcation.",
    "events": {
      "TransferConfirmed(address)": {
        "params": {
          "from": "sender address"
        }
      },
      "TransferInitiated(address,address)": {
        "params": {
          "from": "sender address",
          "to": "receiver's address"
        }
      }
    },
    "kind": "dev",
    "methods": {
      "TipTransferInitiated(address,uint256)": {
        "params": {
          "_to": "receiver's address",
          "amt": "Tip amount to transfer in ether"
        }
      },
      "confirmTransfer(uint256)": {
        "params": {
          "tiptransferId": "universally-unique identifier (UUID)."
        }
      },
      "getBalance(address)": {
        "details": "get balance of an account",
        "params": {
          "account": "the account address"
        },
        "returns": {
          "balance": "account balance"
        }
      },
      "getReceiverAddress(uint256)": {
        "params": {
          "_tiptransferId": "unique identifier (UID)"
        },
        "returns": {
          "_0": "receiver address"
        }
      },
      "getSenderAddress(uint256)": {
        "params": {
          "_tiptransferId": "unique identifier (UID)"
        },
        "returns": {
          "_0": "sender address"
        }
      },
      "getState(uint256)": {
        "params": {
          "_tiptransferId": "unique identifier (UID)"
        },
        "returns": {
          "_0": "transfer transcation state "
        }
      },
      "getTipAmount(uint256)": {
        "params": {
          "_tiptransferId": "universally-unique identifier (UUID)"
        },
        "returns": {
          "amt": "tip amount"
        }
      },
      "owner()": {
        "details": "Returns the address of the current owner."
      },
      "renounceOwnership()": {
        "details": "Leaves the contract without owner. It will not be possible to call `onlyOwner` functions anymore. Can only be called by the current owner. NOTE: Renouncing ownership will leave the contract without an owner, thereby removing any functionality that is only available to the owner."
      },
      "transferOwnership(address)": {
        "details": "Transfers ownership of the contract to a new account (`newOwner`). Can only be called by the current owner."
      }
    },
    "stateVariables": {
      "tip_transfer_records": {
        "details": "The tiptransferId (key) and TipTransfer object (value) are initialized on the mapping (hash table)."
      }
    },
    "title": "Tipping Smart Contract",
    "version": 1
  },
  "userdoc": {
    "events": {
      "TransferConfirmed(address)": {
        "notice": "Emitted when a tip transfer completes."
      },
      "TransferInitiated(address,address)": {
        "notice": "Emitted when a user initate the tip transfer."
      }
    },
    "kind": "user",
    "methods": {
      "TipTransferInitiated(address,uint256)": {
        "notice": "@dev Initiate Tip transfer on the blockchain"
      },
      "confirmTransfer(uint256)": {
        "notice": "@dev Confirms Tip transfer to the sender."
      },
      "getReceiverAddress(uint256)": {
        "notice": "@dev Get the receiver address."
      },
      "getSenderAddress(uint256)": {
        "notice": "@dev Get the sender address."
      },
      "getState(uint256)": {
        "notice": "@dev Get the transfer state"
      },
      "getTipAmount(uint256)": {
        "notice": "@dev Get the balance of the sender or receiver of this transaction."
      }
    },
    "version": 1
  }
}