{
  "contractName": "Tipping",
  "abi": [
    {
      "inputs": [],
      "stateMutability": "payable",
      "type": "constructor",
      "payable": true
    },
    {
      "anonymous": false,
      "inputs": [
        {
          "indexed": true,
          "internalType": "address",
          "name": "previousOwner",
          "type": "address"
        },
        {
          "indexed": true,
          "internalType": "address",
          "name": "newOwner",
          "type": "address"
        }
      ],
      "name": "OwnershipTransferred",
      "type": "event"
    },
    {
      "anonymous": false,
      "inputs": [
        {
          "indexed": false,
          "internalType": "address",
          "name": "from",
          "type": "address"
        }
      ],
      "name": "TransferConfirmed",
      "type": "event"
    },
    {
      "anonymous": false,
      "inputs": [
        {
          "indexed": false,
          "internalType": "address",
          "name": "from",
          "type": "address"
        },
        {
          "indexed": false,
          "internalType": "address",
          "name": "to",
          "type": "address"
        }
      ],
      "name": "TransferInitiated",
      "type": "event"
    },
    {
      "stateMutability": "payable",
      "type": "fallback",
      "payable": true
    },
    {
      "inputs": [],
      "name": "owner",
      "outputs": [
        {
          "internalType": "address",
          "name": "",
          "type": "address"
        }
      ],
      "stateMutability": "view",
      "type": "function",
      "constant": true
    },
    {
      "inputs": [],
      "name": "renounceOwnership",
      "outputs": [],
      "stateMutability": "nonpayable",
      "type": "function"
    },
    {
      "inputs": [
        {
          "internalType": "address",
          "name": "newOwner",
          "type": "address"
        }
      ],
      "name": "transferOwnership",
      "outputs": [],
      "stateMutability": "nonpayable",
      "type": "function"
    },
    {
      "stateMutability": "payable",
      "type": "receive",
      "payable": true
    },
    {
      "inputs": [
        {
          "internalType": "address payable",
          "name": "_to",
          "type": "address"
        },
        {
          "internalType": "uint256",
          "name": "amt",
          "type": "uint256"
        }
      ],
      "name": "TipTransferInitiated",
      "outputs": [
        {
          "internalType": "bytes32",
          "name": "",
          "type": "bytes32"
        }
      ],
      "stateMutability": "payable",
      "type": "function",
      "payable": true
    },
    {
      "inputs": [
        {
          "internalType": "bytes32",
          "name": "tiptransferId",
          "type": "bytes32"
        }
      ],
      "name": "confirmTransfer",
      "outputs": [
        {
          "internalType": "bool",
          "name": "",
          "type": "bool"
        }
      ],
      "stateMutability": "nonpayable",
      "type": "function"
    },
    {
      "inputs": [
        {
          "internalType": "bytes32",
          "name": "tiptransferId",
          "type": "bytes32"
        }
      ],
      "name": "getAmount",
      "outputs": [
        {
          "internalType": "uint256",
          "name": "amt",
          "type": "uint256"
        }
      ],
      "stateMutability": "view",
      "type": "function",
      "constant": true
    },
    {
      "inputs": [
        {
          "internalType": "address",
          "name": "account",
          "type": "address"
        }
      ],
      "name": "getBalance",
      "outputs": [
        {
          "internalType": "uint256",
          "name": "balance",
          "type": "uint256"
        }
      ],
      "stateMutability": "view",
      "type": "function",
      "constant": true
    }
  ],
  "bytecode": "0x608060405261002061001561002560201b60201c565b61002d60201b60201c565b6100f1565b600033905090565b60008060009054906101000a900473ffffffffffffffffffffffffffffffffffffffff169050816000806101000a81548173ffffffffffffffffffffffffffffffffffffffff021916908373ffffffffffffffffffffffffffffffffffffffff1602179055508173ffffffffffffffffffffffffffffffffffffffff168173ffffffffffffffffffffffffffffffffffffffff167f8be0079c531659141344cd1fd0a4f28419497f9722a3daafe3b4186f6b6457e060405160405180910390a35050565b6112cb806101006000396000f3fe6080604052600436106100745760003560e01c80638da5cb5b1161004e5780638da5cb5b146101805780639a0654fa146101ab578063f2fde38b146101db578063f8b2cb4f14610204576100b4565b80630e0a0d74146100ef57806336a55b381461012c578063715018a614610169576100b4565b366100b4576040517f08c379a00000000000000000000000000000000000000000000000000000000081526004016100ab90610b87565b60405180910390fd5b6040517f08c379a00000000000000000000000000000000000000000000000000000000081526004016100e690610bf3565b60405180910390fd5b3480156100fb57600080fd5b5061011660048036038101906101119190610c4e565b610241565b6040516101239190610c94565b60405180910390f35b34801561013857600080fd5b50610153600480360381019061014e9190610c4e565b610326565b6040516101609190610cca565b60405180910390f35b34801561017557600080fd5b5061017e610475565b005b34801561018c57600080fd5b506101956104fd565b6040516101a29190610d26565b60405180910390f35b6101c560048036038101906101c09190610dab565b610526565b6040516101d29190610dfa565b60405180910390f35b3480156101e757600080fd5b5061020260048036038101906101fd9190610e41565b610843565b005b34801561021057600080fd5b5061022b60048036038101906102269190610e41565b61093b565b6040516102389190610c94565b60405180910390f35b6000806001600084815260200190815260200160002090508060010160009054906101000a900473ffffffffffffffffffffffffffffffffffffffff1673ffffffffffffffffffffffffffffffffffffffff163373ffffffffffffffffffffffffffffffffffffffff161415801561030957508060000160009054906101000a900473ffffffffffffffffffffffffffffffffffffffff1673ffffffffffffffffffffffffffffffffffffffff163373ffffffffffffffffffffffffffffffffffffffff1614155b15610318576000915050610321565b80600201549150505b919050565b6000806001600084815260200190815260200160002090508060000160009054906101000a900473ffffffffffffffffffffffffffffffffffffffff1673ffffffffffffffffffffffffffffffffffffffff163373ffffffffffffffffffffffffffffffffffffffff161415806103d35750600160028111156103ac576103ab610e6e565b5b8160030160009054906101000a900460ff1660028111156103d0576103cf610e6e565b5b14155b156103e2576000915050610470565b60028160030160006101000a81548160ff0219169083600281111561040a57610409610e6e565b5b02179055507fa9f066fe9d1d735c95294739beed849965bd8a33402d6b93a20e8842ba1fd70a8160000160009054906101000a900473ffffffffffffffffffffffffffffffffffffffff166040516104629190610efc565b60405180910390a160019150505b919050565b61047d61095c565b73ffffffffffffffffffffffffffffffffffffffff1661049b6104fd565b73ffffffffffffffffffffffffffffffffffffffff16146104f1576040517f08c379a00000000000000000000000000000000000000000000000000000000081526004016104e890610f63565b60405180910390fd5b6104fb6000610964565b565b60008060009054906101000a900473ffffffffffffffffffffffffffffffffffffffff16905090565b600061053061095c565b73ffffffffffffffffffffffffffffffffffffffff1661054e6104fd565b73ffffffffffffffffffffffffffffffffffffffff16146105a4576040517f08c379a000000000000000000000000000000000000000000000000000000000815260040161059b90610f63565b60405180910390fd5b60006105b1338585610a28565b90506000600160008381526020019081526020016000209050600060028111156105de576105dd610e6e565b5b8160030160009054906101000a900460ff16600281111561060257610601610e6e565b5b14610614576000801b9250505061083d565b338160000160006101000a81548173ffffffffffffffffffffffffffffffffffffffff021916908373ffffffffffffffffffffffffffffffffffffffff160217905550848160010160006101000a81548173ffffffffffffffffffffffffffffffffffffffff021916908373ffffffffffffffffffffffffffffffffffffffff16021790555083816002018190555060018160030160006101000a81548160ff021916908360028111156106cb576106ca610e6e565b5b02179055504281600401819055508060010160009054906101000a900473ffffffffffffffffffffffffffffffffffffffff1673ffffffffffffffffffffffffffffffffffffffff166108fc859081150290604051600060405180830381858888f19350505050158015610743573d6000803e3d6000fd5b50600061074e6104fd565b905060008173ffffffffffffffffffffffffffffffffffffffff163460405161077690610fb4565b60006040518083038185875af1925050503d80600081146107b3576040519150601f19603f3d011682016040523d82523d6000602084013e6107b8565b606091505b50509050806107fc576040517f08c379a00000000000000000000000000000000000000000000000000000000081526004016107f39061103b565b60405180910390fd5b7fca52a3681f06ce20104319163b088f8216f3395aa9408c1ad860d48363494e24338860405161082d92919061105b565b60405180910390a1839450505050505b92915050565b61084b61095c565b73ffffffffffffffffffffffffffffffffffffffff166108696104fd565b73ffffffffffffffffffffffffffffffffffffffff16146108bf576040517f08c379a00000000000000000000000000000000000000000000000000000000081526004016108b690610f63565b60405180910390fd5b600073ffffffffffffffffffffffffffffffffffffffff168173ffffffffffffffffffffffffffffffffffffffff16141561092f576040517f08c379a0000000000000000000000000000000000000000000000000000000008152600401610926906110f6565b60405180910390fd5b61093881610964565b50565b60008173ffffffffffffffffffffffffffffffffffffffff16319050919050565b600033905090565b60008060009054906101000a900473ffffffffffffffffffffffffffffffffffffffff169050816000806101000a81548173ffffffffffffffffffffffffffffffffffffffff021916908373ffffffffffffffffffffffffffffffffffffffff1602179055508173ffffffffffffffffffffffffffffffffffffffff168173ffffffffffffffffffffffffffffffffffffffff167f8be0079c531659141344cd1fd0a4f28419497f9722a3daafe3b4186f6b6457e060405160405180910390a35050565b6000610a3261095c565b73ffffffffffffffffffffffffffffffffffffffff16610a506104fd565b73ffffffffffffffffffffffffffffffffffffffff1614610aa6576040517f08c379a0000000000000000000000000000000000000000000000000000000008152600401610a9d90610f63565b60405180910390fd5b6000600285858542604051602001610ac1949392919061117f565b604051602081830303815290604052604051610add919061123c565b602060405180830381855afa158015610afa573d6000803e3d6000fd5b5050506040513d601f19601f82011682018060405250810190610b1d9190611268565b9050809150509392505050565b600082825260208201905092915050565b7f726563656976652066756e6374696f6e00000000000000000000000000000000600082015250565b6000610b71601083610b2a565b9150610b7c82610b3b565b602082019050919050565b60006020820190508181036000830152610ba081610b64565b9050919050565b7f66616c6c6261636b2066756e6374696f6e000000000000000000000000000000600082015250565b6000610bdd601183610b2a565b9150610be882610ba7565b602082019050919050565b60006020820190508181036000830152610c0c81610bd0565b9050919050565b600080fd5b6000819050919050565b610c2b81610c18565b8114610c3657600080fd5b50565b600081359050610c4881610c22565b92915050565b600060208284031215610c6457610c63610c13565b5b6000610c7284828501610c39565b91505092915050565b6000819050919050565b610c8e81610c7b565b82525050565b6000602082019050610ca96000830184610c85565b92915050565b60008115159050919050565b610cc481610caf565b82525050565b6000602082019050610cdf6000830184610cbb565b92915050565b600073ffffffffffffffffffffffffffffffffffffffff82169050919050565b6000610d1082610ce5565b9050919050565b610d2081610d05565b82525050565b6000602082019050610d3b6000830184610d17565b92915050565b6000610d4c82610ce5565b9050919050565b610d5c81610d41565b8114610d6757600080fd5b50565b600081359050610d7981610d53565b92915050565b610d8881610c7b565b8114610d9357600080fd5b50565b600081359050610da581610d7f565b92915050565b60008060408385031215610dc257610dc1610c13565b5b6000610dd085828601610d6a565b9250506020610de185828601610d96565b9150509250929050565b610df481610c18565b82525050565b6000602082019050610e0f6000830184610deb565b92915050565b610e1e81610d05565b8114610e2957600080fd5b50565b600081359050610e3b81610e15565b92915050565b600060208284031215610e5757610e56610c13565b5b6000610e6584828501610e2c565b91505092915050565b7f4e487b7100000000000000000000000000000000000000000000000000000000600052602160045260246000fd5b6000819050919050565b6000610ec2610ebd610eb884610ce5565b610e9d565b610ce5565b9050919050565b6000610ed482610ea7565b9050919050565b6000610ee682610ec9565b9050919050565b610ef681610edb565b82525050565b6000602082019050610f116000830184610eed565b92915050565b7f4f776e61626c653a2063616c6c6572206973206e6f7420746865206f776e6572600082015250565b6000610f4d602083610b2a565b9150610f5882610f17565b602082019050919050565b60006020820190508181036000830152610f7c81610f40565b9050919050565b600081905092915050565b50565b6000610f9e600083610f83565b9150610fa982610f8e565b600082019050919050565b6000610fbf82610f91565b9150819050919050565b7f54697070696e67207472616e73616374696f6e20696e697469616c697a61746960008201527f6f6e206661696c65642e00000000000000000000000000000000000000000000602082015250565b6000611025602a83610b2a565b915061103082610fc9565b604082019050919050565b6000602082019050818103600083015261105481611018565b9050919050565b60006040820190506110706000830185610d17565b61107d6020830184610eed565b9392505050565b7f4f776e61626c653a206e6577206f776e657220697320746865207a65726f206160008201527f6464726573730000000000000000000000000000000000000000000000000000602082015250565b60006110e0602683610b2a565b91506110eb82611084565b604082019050919050565b6000602082019050818103600083015261110f816110d3565b9050919050565b60008160601b9050919050565b600061112e82611116565b9050919050565b600061114082611123565b9050919050565b61115861115382610d05565b611135565b82525050565b6000819050919050565b61117961117482610c7b565b61115e565b82525050565b600061118b8287611147565b60148201915061119b8286611147565b6014820191506111ab8285611168565b6020820191506111bb8284611168565b60208201915081905095945050505050565b600081519050919050565b60005b838110156111f65780820151818401526020810190506111db565b83811115611205576000848401525b50505050565b6000611216826111cd565b6112208185610f83565b93506112308185602086016111d8565b80840191505092915050565b6000611248828461120b565b915081905092915050565b60008151905061126281610c22565b92915050565b60006020828403121561127e5761127d610c13565b5b600061128c84828501611253565b9150509291505056fea2646970667358221220958095c670f311f40c755ebe395f870f5c0644c29f368caee5aed280e3ba577d64736f6c634300080a0033",
  "immutableReferences": {},
  "source": "// SPDX-License-Identifier: MIT\npragma solidity 0.8.10;\n\nimport \"@openzeppelin/contracts/access/Ownable.sol\";\n\n/**\n* @title Tipping Smart Contract\n*\n* @dev @notice This contract allows :\n*               1. Enable tip transfer in the form of ether from one account to another account.\n*               2. Keep records for each tip transfer as tiptransferId. tiptransferId is generated by hashing combination of sender address, receiver address, amount, timestamp.\n*               3. View account balance for both sender and receiver of the tip transcation.\n*\n* @author Shradha Rajmane\n*\n*/\ncontract Tipping is Ownable \n{\n  \n  enum State { None, Initiated, Confirmed }\n\n  struct TipTransfer {\n        address payable FromAddress;\n        address payable ToAddress;\n        uint256 amount;\n        State state;\n        uint timestamp;\n    }\n    \n  /// @dev The tiptransferId (key) and TipTransfer object (value) are initialized on the mapping (hash table).\n  mapping (bytes32 => TipTransfer) tip_transfers;\n\n  /// @notice Emitted when a user initate the tip transfer.\n  /// @param from sender address\n  /// @param to receiver's address\n  event TransferInitiated(address from, address to);\n\n  /// @notice Emitted when a tip transfer completes.\n  /// @param from sender address\n  event TransferConfirmed(address from);\n\n  constructor() public payable\n  {  } \n\n  /// @notice @dev Initiate Tip transfer on the blockchain\n  /// @param _to receiver's address\n  /// @param amt Tip amount to transfer in ether\n  function TipTransferInitiated(address payable _to, uint256 amt) public payable \n  onlyOwner \n  returns(bytes32)\n  {\n    bytes32 _tiptransferId = setTipTransferId(msg.sender,_to,amt);\n    TipTransfer storage tiptransfer = tip_transfers[_tiptransferId];\n\n    if (tiptransfer.state != State.None) return 0;\n\n    tiptransfer.FromAddress    = payable(msg.sender);\n    tiptransfer.ToAddress      = _to;\n    tiptransfer.amount         = amt;\n    tiptransfer.state          = State.Initiated;\n    tiptransfer.timestamp\t     = block.timestamp;\n \n    tiptransfer.ToAddress.transfer(amt);\n\n    address owner = owner();\n    (bool success, ) = owner.call{ value: msg.value }(\"\");\n    require(success, \"Tipping transaction initialization failed.\");\n    // Notify the receiver that the transfer is requested\n    emit TransferInitiated(msg.sender, _to);\n    return _tiptransferId;\n  }\n\n  /// @notice @dev Confirms Tip transfer to the sender.\n  /// @param tiptransferId universally-unique identifier (UUID).\n  function confirmTransfer(bytes32 tiptransferId) public returns (bool) \n  {\n    TipTransfer storage tiptransfer = tip_transfers[tiptransferId];\n    if (msg.sender != tiptransfer.FromAddress || tiptransfer.state != State.Initiated) \n      return false;\n        \n    tiptransfer.state = State.Confirmed;\n    emit TransferConfirmed(tiptransfer.FromAddress);       \n    return true;\n  }\n\n  /// @notice @dev Fallback function - Called if other functions don't match call or sent ether without data.\n  fallback () external payable \n  {\n    revert(\"fallback function\");\n  }\n  receive() external payable \n  {\n    revert(\"receive function\");\n  }\n\n  /// @notice @dev Set Tip transfer Id as universally-unique identifier (UUID)\n  /// @param _from sender's address\n  /// @param _to receiver's address\n  /// @param _amt Tip amount to transfer\n  function setTipTransferId(address _from,address _to,uint256 _amt) private \n  onlyOwner\n  returns(bytes32) \n  {\n    bytes32 tiptransferId = sha256(abi.encodePacked(_from, _to, _amt, block.timestamp));\n    return tiptransferId;\n  }\n\n  /// @notice @dev Get the balance of the sender or receiver of this transaction.\n  /// @param tiptransferId universally-unique identifier (UUID)\n  /// @return amt tip amount in ether \n  function getAmount(bytes32 tiptransferId) public view returns (uint amt) \n  {\n    TipTransfer storage tiptransfer = tip_transfers[tiptransferId];\n    if (msg.sender != tiptransfer.ToAddress && msg.sender != tiptransfer.FromAddress) \n      return 0;\n    return tiptransfer.amount;\n  }\n\n  /// @dev get balance of an account\n  /// @param account the account address\n  /// @return balance account balance in ether\n  function getBalance(address account) public view returns (uint256 balance) \n  {\n        //return balanceOf(account);\n        return account.balance;\n  }\n\n}\n",
  "sourcePath": "/home/shradhar/github/blockchain-developer-bootcamp-final-project/contracts/Tipping.sol",
  "compiler": {
    "name": "solc",
    "version": "0.8.10+commit.fc410830.Emscripten.clang"
  },
  "schemaVersion": "3.4.3",
  "updatedAt": "2021-11-30T00:59:28.942Z",
  "networkType": "ethereum",
  "devdoc": {
    "author": "Shradha Rajmane",
    "details": "@notice This contract allows :               1. Enable tip transfer in the form of ether from one account to another account.               2. Keep records for each tip transfer as tiptransferId. tiptransferId is generated by hashing combination of sender address, receiver address, amount, timestamp.               3. View account balance for both sender and receiver of the tip transcation.",
    "events": {
      "TransferConfirmed(address)": {
        "params": {
          "from": "sender address"
        }
      },
      "TransferInitiated(address,address)": {
        "params": {
          "from": "sender address",
          "to": "receiver's address"
        }
      }
    },
    "kind": "dev",
    "methods": {
      "TipTransferInitiated(address,uint256)": {
        "params": {
          "_to": "receiver's address",
          "amt": "Tip amount to transfer in ether"
        }
      },
      "confirmTransfer(bytes32)": {
        "params": {
          "tiptransferId": "universally-unique identifier (UUID)."
        }
      },
      "getAmount(bytes32)": {
        "params": {
          "tiptransferId": "universally-unique identifier (UUID)"
        },
        "returns": {
          "amt": "tip amount in ether "
        }
      },
      "getBalance(address)": {
        "details": "get balance of an account",
        "params": {
          "account": "the account address"
        },
        "returns": {
          "balance": "account balance in ether"
        }
      },
      "owner()": {
        "details": "Returns the address of the current owner."
      },
      "renounceOwnership()": {
        "details": "Leaves the contract without owner. It will not be possible to call `onlyOwner` functions anymore. Can only be called by the current owner. NOTE: Renouncing ownership will leave the contract without an owner, thereby removing any functionality that is only available to the owner."
      },
      "transferOwnership(address)": {
        "details": "Transfers ownership of the contract to a new account (`newOwner`). Can only be called by the current owner."
      }
    },
    "stateVariables": {
      "tip_transfers": {
        "details": "The tiptransferId (key) and TipTransfer object (value) are initialized on the mapping (hash table)."
      }
    },
    "title": "Tipping Smart Contract",
    "version": 1
  },
  "userdoc": {
    "events": {
      "TransferConfirmed(address)": {
        "notice": "Emitted when a tip transfer completes."
      },
      "TransferInitiated(address,address)": {
        "notice": "Emitted when a user initate the tip transfer."
      }
    },
    "kind": "user",
    "methods": {
      "TipTransferInitiated(address,uint256)": {
        "notice": "@dev Initiate Tip transfer on the blockchain"
      },
      "confirmTransfer(bytes32)": {
        "notice": "@dev Confirms Tip transfer to the sender."
      },
      "getAmount(bytes32)": {
        "notice": "@dev Get the balance of the sender or receiver of this transaction."
      }
    },
    "version": 1
  }
}